{
  "abi": [
    {
      "inputs": [
        {
          "internalType": "address",
          "name": "_nftAddress",
          "type": "address"
        }
      ],
      "stateMutability": "nonpayable",
      "type": "constructor"
    },
    {
      "inputs": [],
      "name": "depositFund",
      "outputs": [],
      "stateMutability": "payable",
      "type": "function"
    },
    {
      "inputs": [
        {
          "internalType": "uint256",
          "name": "_tokenId",
          "type": "uint256"
        }
      ],
      "name": "depositToken",
      "outputs": [],
      "stateMutability": "nonpayable",
      "type": "function"
    },
    {
      "inputs": [],
      "name": "getRewardFund",
      "outputs": [],
      "stateMutability": "payable",
      "type": "function"
    },
    {
      "inputs": [],
      "name": "getRewardToken",
      "outputs": [],
      "stateMutability": "nonpayable",
      "type": "function"
    },
    {
      "inputs": [
        {
          "internalType": "uint256",
          "name": "",
          "type": "uint256"
        }
      ],
      "name": "stake",
      "outputs": [
        {
          "internalType": "uint256",
          "name": "",
          "type": "uint256"
        }
      ],
      "stateMutability": "view",
      "type": "function"
    },
    {
      "inputs": [],
      "name": "timeTrackFunds",
      "outputs": [
        {
          "internalType": "uint256",
          "name": "",
          "type": "uint256"
        }
      ],
      "stateMutability": "view",
      "type": "function"
    },
    {
      "inputs": [],
      "name": "timeTrackNFT",
      "outputs": [
        {
          "internalType": "uint256",
          "name": "",
          "type": "uint256"
        }
      ],
      "stateMutability": "view",
      "type": "function"
    },
    {
      "inputs": [],
      "name": "winnerFunds",
      "outputs": [
        {
          "internalType": "address",
          "name": "",
          "type": "address"
        }
      ],
      "stateMutability": "view",
      "type": "function"
    },
    {
      "inputs": [],
      "name": "winnerNFT",
      "outputs": [
        {
          "internalType": "address",
          "name": "",
          "type": "address"
        }
      ],
      "stateMutability": "view",
      "type": "function"
    }
  ],
  "bytecode": {
    "object": "0x608060405234801561001057600080fd5b506040516107ae3803806107ae83398101604081905261002f91610059565b600680546001600160a01b0319166001600160a01b03929092169190911790556000600555610089565b60006020828403121561006b57600080fd5b81516001600160a01b038116811461008257600080fd5b9392505050565b610716806100986000396000f3fe6080604052600436106100865760003560e01c80638d0d8cb6116100595780638d0d8cb6146101235780639738767e1461012b578063a4d290c214610141578063a694fc3a14610161578063bbb4c4691461018157600080fd5b80634c4aa69a1461008b5780636215be77146100c857806369940d79146100ea57806387bf4e61146100ff575b600080fd5b34801561009757600080fd5b506002546100ab906001600160a01b031681565b6040516001600160a01b0390911681526020015b60405180910390f35b3480156100d457600080fd5b506100e86100e336600461066a565b610189565b005b3480156100f657600080fd5b506100e8610310565b34801561010b57600080fd5b5061011560015481565b6040519081526020016100bf565b6100e8610480565b34801561013757600080fd5b5061011560005481565b34801561014d57600080fd5b506003546100ab906001600160a01b031681565b34801561016d57600080fd5b5061011561017c36600461066a565b610581565b6100e86105a2565b6000546101999062015180610699565b4211156101ed5760405162461bcd60e51b815260206004820181905260248201527f5468652074696d6520666f72206465706f736974204e4654206973206f76657260448201526064015b60405180910390fd5b600354336001600160a01b03909116036102495760405162461bcd60e51b815260206004820152601a60248201527f596f752061726520616c7265616479207468652077696e6e657200000000000060448201526064016101e4565b8060046005548154811061025f5761025f6106b1565b6000918252602082200191909155600580549161027b836106c7565b9091555050600380546001600160a01b03191633908117909155600654604051635c46a7ef60e11b815260048101929092523060248301526044820183905260806064830152600060848301526001600160a01b03169063b88d4fde9060a401600060405180830381600087803b1580156102f557600080fd5b505af1158015610309573d6000803e3d6000fd5b5050505050565b6001546103209062015180610699565b421161037a5760405162461bcd60e51b8152602060048201526024808201527f5468652074696d6520666f72206465706f736974204e4654206973206e6f742060448201526337bb32b960e11b60648201526084016101e4565b6003546001600160a01b0316331461039157600080fd5b60005b60045481101561047d57600654600480546001600160a01b039092169163b88d4fde913091339190869081106103cc576103cc6106b1565b60009182526020822001546040516001600160e01b031960e087901b1681526001600160a01b039485166004820152939092166024840152604483019190915260806064830152608482015260a401600060405180830381600087803b15801561043557600080fd5b505af1158015610449573d6000803e3d6000fd5b5050505060048181548110610460576104606106b1565b600091825260208220015580610475816106c7565b915050610394565b50565b600034116104e65760405162461bcd60e51b815260206004820152602d60248201527f5468652076616c7565206465706f7369746564206e65656420746f206265206760448201526c0726561746572207468616e203609c1b60648201526084016101e4565b6000546104f69062015180610699565b4211156105505760405162461bcd60e51b815260206004820152602260248201527f5468652074696d6520666f72206465706f736974204574686572206973206f7660448201526132b960f11b60648201526084016101e4565b600254336001600160a01b039091160361056957600080fd5b42600055600280546001600160a01b03191633179055565b6004818154811061059157600080fd5b600091825260209091200154905081565b60025447906001600160a01b031633146105bb57600080fd5b6000546105cb9062015180610699565b42116105d657600080fd5b6000811161061d5760405162461bcd60e51b81526020600482015260146024820152734e6f2062616c616e636520617661696c61626c6560601b60448201526064016101e4565b6002546040516000916001600160a01b03169083908381818185875af1925050503d8060008114610309576040519150601f19603f3d011682016040523d82523d6000602084013e610309565b60006020828403121561067c57600080fd5b5035919050565b634e487b7160e01b600052601160045260246000fd5b600082198211156106ac576106ac610683565b500190565b634e487b7160e01b600052603260045260246000fd5b6000600182016106d9576106d9610683565b506001019056fea26469706673582212204f112309b7bf932410193c56ad5a984c2a636a1e2e6c937e3ac551fa47b9119264736f6c634300080d0033",
    "linkReferences": {}
  },
  "methodIdentifiers": {
    "depositFund()": "8d0d8cb6",
    "depositToken(uint256)": "6215be77",
    "getRewardFund()": "bbb4c469",
    "getRewardToken()": "69940d79",
    "stake(uint256)": "a694fc3a",
    "timeTrackFunds()": "9738767e",
    "timeTrackNFT()": "87bf4e61",
    "winnerFunds()": "4c4aa69a",
    "winnerNFT()": "a4d290c2"
  },
  "id": 7
}