{
  "abi": [
    {
      "inputs": [],
      "name": "getRewardEther",
      "outputs": [],
      "stateMutability": "payable",
      "type": "function"
    },
    {
      "inputs": [],
      "name": "sendFund",
      "outputs": [],
      "stateMutability": "payable",
      "type": "function"
    }
  ],
  "bytecode": {
    "object": "0x608060405234801561001057600080fd5b5061019e806100206000396000f3fe6080604052600436106100295760003560e01c80631354979b1461002e578063dd0cf15d14610038575b600080fd5b610036610040565b005b610036610101565b60005447906100529062015180610142565b421161005d57600080fd5b600081116100a85760405162461bcd60e51b81526020600482015260146024820152734e6f2062616c616e636520617661696c61626c6560601b604482015260640160405180910390fd5b6001546040516000916001600160a01b03169083908381818185875af1925050503d80600081146100f5576040519150601f19603f3d011682016040523d82523d6000602084013e6100fa565b606091505b5050505050565b6000341161010e57600080fd5b60005461011e9062015180610142565b42111561012a57600080fd5b42600055600180546001600160a01b03191633179055565b6000821982111561016357634e487b7160e01b600052601160045260246000fd5b50019056fea2646970667358221220b6107c10247fd4c2322d55687f75e6fef7727dbbdf9830a398552501621391e564736f6c634300080d0033",
    "linkReferences": {}
  },
  "methodIdentifiers": {
    "getRewardEther()": "1354979b",
    "sendFund()": "dd0cf15d"
  },
  "id": 19
}