{
  "abi": [
    {
      "inputs": [],
      "name": "depositFund",
      "outputs": [],
      "stateMutability": "payable",
      "type": "function"
    },
    {
      "inputs": [
        {
          "internalType": "address",
          "name": "token",
          "type": "address"
        }
      ],
      "name": "depositToken",
      "outputs": [],
      "stateMutability": "nonpayable",
      "type": "function"
    },
    {
      "inputs": [],
      "name": "getRewardEther",
      "outputs": [],
      "stateMutability": "payable",
      "type": "function"
    },
    {
      "inputs": [
        {
          "internalType": "address",
          "name": "",
          "type": "address"
        }
      ],
      "name": "nftCollection",
      "outputs": [
        {
          "internalType": "uint256",
          "name": "",
          "type": "uint256"
        }
      ],
      "stateMutability": "view",
      "type": "function"
    }
  ],
  "bytecode": {
    "object": "0x608060405234801561001057600080fd5b50610258806100206000396000f3fe60806040526004361061003f5760003560e01c80631354979b146100445780632fd552651461004e57806359db511b1461006c5780638d0d8cb6146100ab575b600080fd5b61004c6100b3565b005b34801561005a57600080fd5b5061004c6100693660046101cc565b50565b34801561007857600080fd5b506100996100873660046101cc565b60036020526000908152604090205481565b60405190815260200160405180910390f35b61004c61018b565b60025447906001600160a01b031633146100cc57600080fd5b6000546100dc90620151806101fc565b42116100e757600080fd5b600081116101325760405162461bcd60e51b81526020600482015260146024820152734e6f2062616c616e636520617661696c61626c6560601b604482015260640160405180910390fd5b6002546040516000916001600160a01b03169083908381818185875af1925050503d806000811461017f576040519150601f19603f3d011682016040523d82523d6000602084013e610184565b606091505b5050505050565b6000341161019857600080fd5b6000546101a890620151806101fc565b4211156101b457600080fd5b42600055600280546001600160a01b03191633179055565b6000602082840312156101de57600080fd5b81356001600160a01b03811681146101f557600080fd5b9392505050565b6000821982111561021d57634e487b7160e01b600052601160045260246000fd5b50019056fea2646970667358221220f787de231ac493c6576b6aee6334edc76b03beb9f5ac41ddecfa25ce54e059b764736f6c634300080d0033",
    "linkReferences": {}
  },
  "methodIdentifiers": {
    "depositFund()": "8d0d8cb6",
    "depositToken(address)": "2fd55265",
    "getRewardEther()": "1354979b",
    "nftCollection(address)": "59db511b"
  },
  "id": 18
}