{
  "abi": [
    {
      "inputs": [],
      "stateMutability": "nonpayable",
      "type": "constructor"
    },
    {
      "anonymous": false,
      "inputs": [
        {
          "indexed": true,
          "internalType": "address",
          "name": "owner",
          "type": "address"
        },
        {
          "indexed": true,
          "internalType": "address",
          "name": "approved",
          "type": "address"
        },
        {
          "indexed": true,
          "internalType": "uint256",
          "name": "tokenId",
          "type": "uint256"
        }
      ],
      "name": "Approval",
      "type": "event"
    },
    {
      "anonymous": false,
      "inputs": [
        {
          "indexed": true,
          "internalType": "address",
          "name": "owner",
          "type": "address"
        },
        {
          "indexed": true,
          "internalType": "address",
          "name": "operator",
          "type": "address"
        },
        {
          "indexed": false,
          "internalType": "bool",
          "name": "approved",
          "type": "bool"
        }
      ],
      "name": "ApprovalForAll",
      "type": "event"
    },
    {
      "anonymous": false,
      "inputs": [
        {
          "indexed": true,
          "internalType": "address",
          "name": "previousOwner",
          "type": "address"
        },
        {
          "indexed": true,
          "internalType": "address",
          "name": "newOwner",
          "type": "address"
        }
      ],
      "name": "OwnershipTransferred",
      "type": "event"
    },
    {
      "anonymous": false,
      "inputs": [
        {
          "indexed": true,
          "internalType": "address",
          "name": "from",
          "type": "address"
        },
        {
          "indexed": true,
          "internalType": "address",
          "name": "to",
          "type": "address"
        },
        {
          "indexed": true,
          "internalType": "uint256",
          "name": "tokenId",
          "type": "uint256"
        }
      ],
      "name": "Transfer",
      "type": "event"
    },
    {
      "inputs": [
        {
          "internalType": "address",
          "name": "to",
          "type": "address"
        },
        {
          "internalType": "uint256",
          "name": "tokenId",
          "type": "uint256"
        }
      ],
      "name": "approve",
      "outputs": [],
      "stateMutability": "nonpayable",
      "type": "function"
    },
    {
      "inputs": [
        {
          "internalType": "address",
          "name": "owner",
          "type": "address"
        }
      ],
      "name": "balanceOf",
      "outputs": [
        {
          "internalType": "uint256",
          "name": "",
          "type": "uint256"
        }
      ],
      "stateMutability": "view",
      "type": "function"
    },
    {
      "inputs": [
        {
          "internalType": "uint256",
          "name": "tokenId",
          "type": "uint256"
        }
      ],
      "name": "getApproved",
      "outputs": [
        {
          "internalType": "address",
          "name": "",
          "type": "address"
        }
      ],
      "stateMutability": "view",
      "type": "function"
    },
    {
      "inputs": [
        {
          "internalType": "address",
          "name": "owner",
          "type": "address"
        }
      ],
      "name": "getToken",
      "outputs": [
        {
          "internalType": "uint256",
          "name": "",
          "type": "uint256"
        }
      ],
      "stateMutability": "view",
      "type": "function"
    },
    {
      "inputs": [
        {
          "internalType": "address",
          "name": "owner",
          "type": "address"
        },
        {
          "internalType": "address",
          "name": "operator",
          "type": "address"
        }
      ],
      "name": "isApprovedForAll",
      "outputs": [
        {
          "internalType": "bool",
          "name": "",
          "type": "bool"
        }
      ],
      "stateMutability": "view",
      "type": "function"
    },
    {
      "inputs": [
        {
          "internalType": "address",
          "name": "recipient",
          "type": "address"
        }
      ],
      "name": "mintToken",
      "outputs": [],
      "stateMutability": "nonpayable",
      "type": "function"
    },
    {
      "inputs": [],
      "name": "name",
      "outputs": [
        {
          "internalType": "string",
          "name": "",
          "type": "string"
        }
      ],
      "stateMutability": "view",
      "type": "function"
    },
    {
      "inputs": [],
      "name": "owner",
      "outputs": [
        {
          "internalType": "address",
          "name": "",
          "type": "address"
        }
      ],
      "stateMutability": "view",
      "type": "function"
    },
    {
      "inputs": [
        {
          "internalType": "uint256",
          "name": "tokenId",
          "type": "uint256"
        }
      ],
      "name": "ownerOf",
      "outputs": [
        {
          "internalType": "address",
          "name": "",
          "type": "address"
        }
      ],
      "stateMutability": "view",
      "type": "function"
    },
    {
      "inputs": [
        {
          "internalType": "address",
          "name": "",
          "type": "address"
        }
      ],
      "name": "ownershipRecord",
      "outputs": [
        {
          "internalType": "uint256",
          "name": "",
          "type": "uint256"
        }
      ],
      "stateMutability": "view",
      "type": "function"
    },
    {
      "inputs": [],
      "name": "renounceOwnership",
      "outputs": [],
      "stateMutability": "nonpayable",
      "type": "function"
    },
    {
      "inputs": [
        {
          "internalType": "address",
          "name": "from",
          "type": "address"
        },
        {
          "internalType": "address",
          "name": "to",
          "type": "address"
        },
        {
          "internalType": "uint256",
          "name": "tokenId",
          "type": "uint256"
        }
      ],
      "name": "safeTransferFrom",
      "outputs": [],
      "stateMutability": "nonpayable",
      "type": "function"
    },
    {
      "inputs": [
        {
          "internalType": "address",
          "name": "from",
          "type": "address"
        },
        {
          "internalType": "address",
          "name": "to",
          "type": "address"
        },
        {
          "internalType": "uint256",
          "name": "tokenId",
          "type": "uint256"
        },
        {
          "internalType": "bytes",
          "name": "data",
          "type": "bytes"
        }
      ],
      "name": "safeTransferFrom",
      "outputs": [],
      "stateMutability": "nonpayable",
      "type": "function"
    },
    {
      "inputs": [
        {
          "internalType": "address",
          "name": "operator",
          "type": "address"
        },
        {
          "internalType": "bool",
          "name": "approved",
          "type": "bool"
        }
      ],
      "name": "setApprovalForAll",
      "outputs": [],
      "stateMutability": "nonpayable",
      "type": "function"
    },
    {
      "inputs": [
        {
          "internalType": "bytes4",
          "name": "interfaceId",
          "type": "bytes4"
        }
      ],
      "name": "supportsInterface",
      "outputs": [
        {
          "internalType": "bool",
          "name": "",
          "type": "bool"
        }
      ],
      "stateMutability": "view",
      "type": "function"
    },
    {
      "inputs": [],
      "name": "symbol",
      "outputs": [
        {
          "internalType": "string",
          "name": "",
          "type": "string"
        }
      ],
      "stateMutability": "view",
      "type": "function"
    },
    {
      "inputs": [
        {
          "internalType": "uint256",
          "name": "tokenId",
          "type": "uint256"
        }
      ],
      "name": "tokenURI",
      "outputs": [
        {
          "internalType": "string",
          "name": "",
          "type": "string"
        }
      ],
      "stateMutability": "view",
      "type": "function"
    },
    {
      "inputs": [
        {
          "internalType": "address",
          "name": "from",
          "type": "address"
        },
        {
          "internalType": "address",
          "name": "to",
          "type": "address"
        },
        {
          "internalType": "uint256",
          "name": "tokenId",
          "type": "uint256"
        }
      ],
      "name": "transferFrom",
      "outputs": [],
      "stateMutability": "nonpayable",
      "type": "function"
    },
    {
      "inputs": [
        {
          "internalType": "address",
          "name": "newOwner",
          "type": "address"
        }
      ],
      "name": "transferOwnership",
      "outputs": [],
      "stateMutability": "nonpayable",
      "type": "function"
    }
  ],
  "bytecode": {
    "object": "0x60806040523480156200001157600080fd5b50604080518082018252600d81526c151a1c995954da59db58539195609a1b6020808301918252835180850190945260038452622a29a760e91b9084015281519192916200006291600091620000f6565b50805162000078906001906020840190620000f6565b505050620000956200008f620000a060201b60201c565b620000a4565b6000600755620001d8565b3390565b600680546001600160a01b038381166001600160a01b0319831681179093556040519116919082907f8be0079c531659141344cd1fd0a4f28419497f9722a3daafe3b4186f6b6457e090600090a35050565b82805462000104906200019c565b90600052602060002090601f01602090048101928262000128576000855562000173565b82601f106200014357805160ff191683800117855562000173565b8280016001018555821562000173579182015b828111156200017357825182559160200191906001019062000156565b506200018192915062000185565b5090565b5b8082111562000181576000815560010162000186565b600181811c90821680620001b157607f821691505b602082108103620001d257634e487b7160e01b600052602260045260246000fd5b50919050565b61169680620001e86000396000f3fe608060405234801561001057600080fd5b50600436106101215760003560e01c806370a08231116100ad578063a22cb46511610071578063a22cb4651461027a578063b88d4fde1461028d578063c87b56dd146102a0578063e985e9c5146102b3578063f2fde38b146102ef57600080fd5b806370a0823114610226578063715018a61461023957806384667d17146102415780638da5cb5b1461026157806395d89b411461027257600080fd5b8063095ea7b3116100f4578063095ea7b3146101a357806323b872dd146101b657806342842e0e146101c957806359770438146101dc5780636352211e1461021357600080fd5b806301173a741461012657806301ffc9a71461013b57806306fdde0314610163578063081812fc14610178575b600080fd5b6101396101343660046111db565b610302565b005b61014e61014936600461120c565b6103d2565b60405190151581526020015b60405180910390f35b61016b610424565b60405161015a9190611281565b61018b610186366004611294565b6104b6565b6040516001600160a01b03909116815260200161015a565b6101396101b13660046112ad565b6104dd565b6101396101c43660046112d7565b6105f2565b6101396101d73660046112d7565b610623565b6102056101ea3660046111db565b6001600160a01b031660009081526008602052604090205490565b60405190815260200161015a565b61018b610221366004611294565b61063e565b6102056102343660046111db565b61069e565b610139610724565b61020561024f3660046111db565b60086020526000908152604090205481565b6006546001600160a01b031661018b565b61016b610738565b610139610288366004611313565b610747565b61013961029b366004611365565b610756565b61016b6102ae366004611294565b61078e565b61014e6102c1366004611441565b6001600160a01b03918216600090815260056020908152604080832093909416825291909152205460ff1690565b6101396102fd3660046111db565b610802565b61030a61087b565b806001600160a01b03166103266006546001600160a01b031690565b6001600160a01b0316036103975760405162461bcd60e51b815260206004820152602d60248201527f526563697069656e742063616e6e6f7420626520746865206f776e6572206f6660448201526c081d1a194818dbdb9d1c9858dd609a1b60648201526084015b60405180910390fd5b6103a3816007546108d5565b6007546001600160a01b03821660009081526008602052604090208190556103cc90600161148a565b60075550565b60006001600160e01b031982166380ac58cd60e01b148061040357506001600160e01b03198216635b5e139f60e01b145b8061041e57506301ffc9a760e01b6001600160e01b03198316145b92915050565b606060008054610433906114a2565b80601f016020809104026020016040519081016040528092919081815260200182805461045f906114a2565b80156104ac5780601f10610481576101008083540402835291602001916104ac565b820191906000526020600020905b81548152906001019060200180831161048f57829003601f168201915b5050505050905090565b60006104c1826108ef565b506000908152600460205260409020546001600160a01b031690565b60006104e88261063e565b9050806001600160a01b0316836001600160a01b0316036105555760405162461bcd60e51b815260206004820152602160248201527f4552433732313a20617070726f76616c20746f2063757272656e74206f776e656044820152603960f91b606482015260840161038e565b336001600160a01b0382161480610571575061057181336102c1565b6105e35760405162461bcd60e51b815260206004820152603d60248201527f4552433732313a20617070726f76652063616c6c6572206973206e6f7420746f60448201527f6b656e206f776e6572206f7220617070726f76656420666f7220616c6c000000606482015260840161038e565b6105ed838361094e565b505050565b6105fc33826109bc565b6106185760405162461bcd60e51b815260040161038e906114dc565b6105ed838383610a3b565b6105ed83838360405180602001604052806000815250610756565b6000818152600260205260408120546001600160a01b03168061041e5760405162461bcd60e51b8152602060048201526018602482015277115490cdcc8c4e881a5b9d985b1a59081d1bdad95b88125160421b604482015260640161038e565b60006001600160a01b0382166107085760405162461bcd60e51b815260206004820152602960248201527f4552433732313a2061646472657373207a65726f206973206e6f7420612076616044820152683634b21037bbb732b960b91b606482015260840161038e565b506001600160a01b031660009081526003602052604090205490565b61072c61087b565b6107366000610bac565b565b606060018054610433906114a2565b610752338383610bfe565b5050565b61076033836109bc565b61077c5760405162461bcd60e51b815260040161038e906114dc565b61078884848484610ccc565b50505050565b6060610799826108ef565b60006107b060408051602081019091526000815290565b905060008151116107d057604051806020016040528060008152506107fb565b806107da84610cff565b6040516020016107eb929190611529565b6040516020818303038152906040525b9392505050565b61080a61087b565b6001600160a01b03811661086f5760405162461bcd60e51b815260206004820152602660248201527f4f776e61626c653a206e6577206f776e657220697320746865207a65726f206160448201526564647265737360d01b606482015260840161038e565b61087881610bac565b50565b6006546001600160a01b031633146107365760405162461bcd60e51b815260206004820181905260248201527f4f776e61626c653a2063616c6c6572206973206e6f7420746865206f776e6572604482015260640161038e565b610752828260405180602001604052806000815250610d92565b6000818152600260205260409020546001600160a01b03166108785760405162461bcd60e51b8152602060048201526018602482015277115490cdcc8c4e881a5b9d985b1a59081d1bdad95b88125160421b604482015260640161038e565b600081815260046020526040902080546001600160a01b0319166001600160a01b03841690811790915581906109838261063e565b6001600160a01b03167f8c5be1e5ebec7d5bd14f71427d1e84f3dd0314c0f7b2291e5b200ac8c7c3b92560405160405180910390a45050565b6000806109c88361063e565b9050806001600160a01b0316846001600160a01b03161480610a0f57506001600160a01b0380821660009081526005602090815260408083209388168352929052205460ff165b80610a335750836001600160a01b0316610a28846104b6565b6001600160a01b0316145b949350505050565b826001600160a01b0316610a4e8261063e565b6001600160a01b031614610a745760405162461bcd60e51b815260040161038e90611558565b6001600160a01b038216610ad65760405162461bcd60e51b8152602060048201526024808201527f4552433732313a207472616e7366657220746f20746865207a65726f206164646044820152637265737360e01b606482015260840161038e565b610ae38383836001610dc5565b826001600160a01b0316610af68261063e565b6001600160a01b031614610b1c5760405162461bcd60e51b815260040161038e90611558565b600081815260046020908152604080832080546001600160a01b03199081169091556001600160a01b0387811680865260038552838620805460001901905590871680865283862080546001019055868652600290945282852080549092168417909155905184937fddf252ad1be2c89b69c2b068fc378daa952ba7f163c4a11628f55a4df523b3ef91a4505050565b600680546001600160a01b038381166001600160a01b0319831681179093556040519116919082907f8be0079c531659141344cd1fd0a4f28419497f9722a3daafe3b4186f6b6457e090600090a35050565b816001600160a01b0316836001600160a01b031603610c5f5760405162461bcd60e51b815260206004820152601960248201527f4552433732313a20617070726f766520746f2063616c6c657200000000000000604482015260640161038e565b6001600160a01b03838116600081815260056020908152604080832094871680845294825291829020805460ff191686151590811790915591519182527f17307eab39ab6107e8899845ad3d59bd9653f200f220920489ca2b5937696c31910160405180910390a3505050565b610cd7848484610a3b565b610ce384848484610e4d565b6107885760405162461bcd60e51b815260040161038e9061159d565b60606000610d0c83610f4e565b600101905060008167ffffffffffffffff811115610d2c57610d2c61134f565b6040519080825280601f01601f191660200182016040528015610d56576020820181803683370190505b5090508181016020015b600019016f181899199a1a9b1b9c1cb0b131b232b360811b600a86061a8153600a8504945084610d6057509392505050565b610d9c8383611026565b610da96000848484610e4d565b6105ed5760405162461bcd60e51b815260040161038e9061159d565b6001811115610788576001600160a01b03841615610e0b576001600160a01b03841660009081526003602052604081208054839290610e059084906115ef565b90915550505b6001600160a01b03831615610788576001600160a01b03831660009081526003602052604081208054839290610e4290849061148a565b909155505050505050565b60006001600160a01b0384163b15610f4357604051630a85bd0160e11b81526001600160a01b0385169063150b7a0290610e91903390899088908890600401611606565b6020604051808303816000875af1925050508015610ecc575060408051601f3d908101601f19168201909252610ec991810190611643565b60015b610f29573d808015610efa576040519150601f19603f3d011682016040523d82523d6000602084013e610eff565b606091505b508051600003610f215760405162461bcd60e51b815260040161038e9061159d565b805181602001fd5b6001600160e01b031916630a85bd0160e11b149050610a33565b506001949350505050565b60008072184f03e93ff9f4daa797ed6e38ed64bf6a1f0160401b8310610f8d5772184f03e93ff9f4daa797ed6e38ed64bf6a1f0160401b830492506040015b6d04ee2d6d415b85acef81000000008310610fb9576d04ee2d6d415b85acef8100000000830492506020015b662386f26fc100008310610fd757662386f26fc10000830492506010015b6305f5e1008310610fef576305f5e100830492506008015b612710831061100357612710830492506004015b60648310611015576064830492506002015b600a831061041e5760010192915050565b6001600160a01b03821661107c5760405162461bcd60e51b815260206004820181905260248201527f4552433732313a206d696e7420746f20746865207a65726f2061646472657373604482015260640161038e565b6000818152600260205260409020546001600160a01b0316156110e15760405162461bcd60e51b815260206004820152601c60248201527f4552433732313a20746f6b656e20616c7265616479206d696e74656400000000604482015260640161038e565b6110ef600083836001610dc5565b6000818152600260205260409020546001600160a01b0316156111545760405162461bcd60e51b815260206004820152601c60248201527f4552433732313a20746f6b656e20616c7265616479206d696e74656400000000604482015260640161038e565b6001600160a01b038216600081815260036020908152604080832080546001019055848352600290915280822080546001600160a01b0319168417905551839291907fddf252ad1be2c89b69c2b068fc378daa952ba7f163c4a11628f55a4df523b3ef908290a45050565b80356001600160a01b03811681146111d657600080fd5b919050565b6000602082840312156111ed57600080fd5b6107fb826111bf565b6001600160e01b03198116811461087857600080fd5b60006020828403121561121e57600080fd5b81356107fb816111f6565b60005b8381101561124457818101518382015260200161122c565b838111156107885750506000910152565b6000815180845261126d816020860160208601611229565b601f01601f19169290920160200192915050565b6020815260006107fb6020830184611255565b6000602082840312156112a657600080fd5b5035919050565b600080604083850312156112c057600080fd5b6112c9836111bf565b946020939093013593505050565b6000806000606084860312156112ec57600080fd5b6112f5846111bf565b9250611303602085016111bf565b9150604084013590509250925092565b6000806040838503121561132657600080fd5b61132f836111bf565b91506020830135801515811461134457600080fd5b809150509250929050565b634e487b7160e01b600052604160045260246000fd5b6000806000806080858703121561137b57600080fd5b611384856111bf565b9350611392602086016111bf565b925060408501359150606085013567ffffffffffffffff808211156113b657600080fd5b818701915087601f8301126113ca57600080fd5b8135818111156113dc576113dc61134f565b604051601f8201601f19908116603f011681019083821181831017156114045761140461134f565b816040528281528a602084870101111561141d57600080fd5b82602086016020830137600060208483010152809550505050505092959194509250565b6000806040838503121561145457600080fd5b61145d836111bf565b915061146b602084016111bf565b90509250929050565b634e487b7160e01b600052601160045260246000fd5b6000821982111561149d5761149d611474565b500190565b600181811c908216806114b657607f821691505b6020821081036114d657634e487b7160e01b600052602260045260246000fd5b50919050565b6020808252602d908201527f4552433732313a2063616c6c6572206973206e6f7420746f6b656e206f776e6560408201526c1c881bdc88185c1c1c9bdd9959609a1b606082015260800190565b6000835161153b818460208801611229565b83519083019061154f818360208801611229565b01949350505050565b60208082526025908201527f4552433732313a207472616e736665722066726f6d20696e636f72726563742060408201526437bbb732b960d91b606082015260800190565b60208082526032908201527f4552433732313a207472616e7366657220746f206e6f6e20455243373231526560408201527131b2b4bb32b91034b6b83632b6b2b73a32b960711b606082015260800190565b60008282101561160157611601611474565b500390565b6001600160a01b038581168252841660208201526040810183905260806060820181905260009061163990830184611255565b9695505050505050565b60006020828403121561165557600080fd5b81516107fb816111f656fea26469706673582212204c3925a9b94b9d4f67cc5a06a6e399bd61b7f5a5490861205b07900e3097c4bd64736f6c634300080d0033",
    "linkReferences": {}
  },
  "methodIdentifiers": {
    "approve(address,uint256)": "095ea7b3",
    "balanceOf(address)": "70a08231",
    "getApproved(uint256)": "081812fc",
    "getToken(address)": "59770438",
    "isApprovedForAll(address,address)": "e985e9c5",
    "mintToken(address)": "01173a74",
    "name()": "06fdde03",
    "owner()": "8da5cb5b",
    "ownerOf(uint256)": "6352211e",
    "ownershipRecord(address)": "84667d17",
    "renounceOwnership()": "715018a6",
    "safeTransferFrom(address,address,uint256)": "42842e0e",
    "safeTransferFrom(address,address,uint256,bytes)": "b88d4fde",
    "setApprovalForAll(address,bool)": "a22cb465",
    "supportsInterface(bytes4)": "01ffc9a7",
    "symbol()": "95d89b41",
    "tokenURI(uint256)": "c87b56dd",
    "transferFrom(address,address,uint256)": "23b872dd",
    "transferOwnership(address)": "f2fde38b"
  },
  "id": 19
}