{
  "abi": [
    {
      "inputs": [],
      "stateMutability": "nonpayable",
      "type": "constructor"
    },
    {
      "anonymous": false,
      "inputs": [
        {
          "indexed": true,
          "internalType": "address",
          "name": "owner",
          "type": "address"
        },
        {
          "indexed": true,
          "internalType": "address",
          "name": "approved",
          "type": "address"
        },
        {
          "indexed": true,
          "internalType": "uint256",
          "name": "tokenId",
          "type": "uint256"
        }
      ],
      "name": "Approval",
      "type": "event"
    },
    {
      "anonymous": false,
      "inputs": [
        {
          "indexed": true,
          "internalType": "address",
          "name": "owner",
          "type": "address"
        },
        {
          "indexed": true,
          "internalType": "address",
          "name": "operator",
          "type": "address"
        },
        {
          "indexed": false,
          "internalType": "bool",
          "name": "approved",
          "type": "bool"
        }
      ],
      "name": "ApprovalForAll",
      "type": "event"
    },
    {
      "anonymous": false,
      "inputs": [
        {
          "indexed": true,
          "internalType": "address",
          "name": "previousOwner",
          "type": "address"
        },
        {
          "indexed": true,
          "internalType": "address",
          "name": "newOwner",
          "type": "address"
        }
      ],
      "name": "OwnershipTransferred",
      "type": "event"
    },
    {
      "anonymous": false,
      "inputs": [
        {
          "indexed": true,
          "internalType": "address",
          "name": "from",
          "type": "address"
        },
        {
          "indexed": true,
          "internalType": "address",
          "name": "to",
          "type": "address"
        },
        {
          "indexed": true,
          "internalType": "uint256",
          "name": "tokenId",
          "type": "uint256"
        }
      ],
      "name": "Transfer",
      "type": "event"
    },
    {
      "inputs": [
        {
          "internalType": "address",
          "name": "to",
          "type": "address"
        },
        {
          "internalType": "uint256",
          "name": "tokenId",
          "type": "uint256"
        }
      ],
      "name": "approve",
      "outputs": [],
      "stateMutability": "nonpayable",
      "type": "function"
    },
    {
      "inputs": [
        {
          "internalType": "address",
          "name": "owner",
          "type": "address"
        }
      ],
      "name": "balanceOf",
      "outputs": [
        {
          "internalType": "uint256",
          "name": "",
          "type": "uint256"
        }
      ],
      "stateMutability": "view",
      "type": "function"
    },
    {
      "inputs": [
        {
          "internalType": "uint256",
          "name": "tokenId",
          "type": "uint256"
        }
      ],
      "name": "getApproved",
      "outputs": [
        {
          "internalType": "address",
          "name": "",
          "type": "address"
        }
      ],
      "stateMutability": "view",
      "type": "function"
    },
    {
      "inputs": [
        {
          "internalType": "address",
          "name": "owner",
          "type": "address"
        }
      ],
      "name": "getToken",
      "outputs": [
        {
          "components": [
            {
              "internalType": "uint256",
              "name": "tokenId",
              "type": "uint256"
            },
            {
              "internalType": "uint256",
              "name": "timeStamp",
              "type": "uint256"
            }
          ],
          "internalType": "struct ThreeSigmaChallengeToken.tokenData[]",
          "name": "",
          "type": "tuple[]"
        }
      ],
      "stateMutability": "view",
      "type": "function"
    },
    {
      "inputs": [
        {
          "internalType": "address",
          "name": "owner",
          "type": "address"
        },
        {
          "internalType": "address",
          "name": "operator",
          "type": "address"
        }
      ],
      "name": "isApprovedForAll",
      "outputs": [
        {
          "internalType": "bool",
          "name": "",
          "type": "bool"
        }
      ],
      "stateMutability": "view",
      "type": "function"
    },
    {
      "inputs": [
        {
          "internalType": "address",
          "name": "recipient",
          "type": "address"
        }
      ],
      "name": "mintToken",
      "outputs": [],
      "stateMutability": "nonpayable",
      "type": "function"
    },
    {
      "inputs": [],
      "name": "name",
      "outputs": [
        {
          "internalType": "string",
          "name": "",
          "type": "string"
        }
      ],
      "stateMutability": "view",
      "type": "function"
    },
    {
      "inputs": [],
      "name": "owner",
      "outputs": [
        {
          "internalType": "address",
          "name": "",
          "type": "address"
        }
      ],
      "stateMutability": "view",
      "type": "function"
    },
    {
      "inputs": [
        {
          "internalType": "uint256",
          "name": "tokenId",
          "type": "uint256"
        }
      ],
      "name": "ownerOf",
      "outputs": [
        {
          "internalType": "address",
          "name": "",
          "type": "address"
        }
      ],
      "stateMutability": "view",
      "type": "function"
    },
    {
      "inputs": [
        {
          "internalType": "address",
          "name": "",
          "type": "address"
        },
        {
          "internalType": "uint256",
          "name": "",
          "type": "uint256"
        }
      ],
      "name": "ownershipRecord",
      "outputs": [
        {
          "internalType": "uint256",
          "name": "tokenId",
          "type": "uint256"
        },
        {
          "internalType": "uint256",
          "name": "timeStamp",
          "type": "uint256"
        }
      ],
      "stateMutability": "view",
      "type": "function"
    },
    {
      "inputs": [],
      "name": "renounceOwnership",
      "outputs": [],
      "stateMutability": "nonpayable",
      "type": "function"
    },
    {
      "inputs": [
        {
          "internalType": "address",
          "name": "from",
          "type": "address"
        },
        {
          "internalType": "address",
          "name": "to",
          "type": "address"
        },
        {
          "internalType": "uint256",
          "name": "tokenId",
          "type": "uint256"
        }
      ],
      "name": "safeTransferFrom",
      "outputs": [],
      "stateMutability": "nonpayable",
      "type": "function"
    },
    {
      "inputs": [
        {
          "internalType": "address",
          "name": "from",
          "type": "address"
        },
        {
          "internalType": "address",
          "name": "to",
          "type": "address"
        },
        {
          "internalType": "uint256",
          "name": "tokenId",
          "type": "uint256"
        },
        {
          "internalType": "bytes",
          "name": "data",
          "type": "bytes"
        }
      ],
      "name": "safeTransferFrom",
      "outputs": [],
      "stateMutability": "nonpayable",
      "type": "function"
    },
    {
      "inputs": [
        {
          "internalType": "address",
          "name": "operator",
          "type": "address"
        },
        {
          "internalType": "bool",
          "name": "approved",
          "type": "bool"
        }
      ],
      "name": "setApprovalForAll",
      "outputs": [],
      "stateMutability": "nonpayable",
      "type": "function"
    },
    {
      "inputs": [
        {
          "internalType": "bytes4",
          "name": "interfaceId",
          "type": "bytes4"
        }
      ],
      "name": "supportsInterface",
      "outputs": [
        {
          "internalType": "bool",
          "name": "",
          "type": "bool"
        }
      ],
      "stateMutability": "view",
      "type": "function"
    },
    {
      "inputs": [],
      "name": "symbol",
      "outputs": [
        {
          "internalType": "string",
          "name": "",
          "type": "string"
        }
      ],
      "stateMutability": "view",
      "type": "function"
    },
    {
      "inputs": [
        {
          "internalType": "uint256",
          "name": "tokenId",
          "type": "uint256"
        }
      ],
      "name": "tokenURI",
      "outputs": [
        {
          "internalType": "string",
          "name": "",
          "type": "string"
        }
      ],
      "stateMutability": "view",
      "type": "function"
    },
    {
      "inputs": [
        {
          "internalType": "address",
          "name": "from",
          "type": "address"
        },
        {
          "internalType": "address",
          "name": "to",
          "type": "address"
        },
        {
          "internalType": "uint256",
          "name": "tokenId",
          "type": "uint256"
        }
      ],
      "name": "transferFrom",
      "outputs": [],
      "stateMutability": "nonpayable",
      "type": "function"
    },
    {
      "inputs": [
        {
          "internalType": "address",
          "name": "newOwner",
          "type": "address"
        }
      ],
      "name": "transferOwnership",
      "outputs": [],
      "stateMutability": "nonpayable",
      "type": "function"
    }
  ],
  "bytecode": {
    "object": "0x60806040523480156200001157600080fd5b50604080518082018252601881527f54687265655369676d614368616c6c656e6765546f6b656e00000000000000006020808301918252835180850190945260048452631514d0d560e21b908401528151919291620000739160009162000102565b5080516200008990600190602084019062000102565b505050620000a6620000a0620000ac60201b60201c565b620000b0565b620001e4565b3390565b600680546001600160a01b038381166001600160a01b0319831681179093556040519116919082907f8be0079c531659141344cd1fd0a4f28419497f9722a3daafe3b4186f6b6457e090600090a35050565b8280546200011090620001a8565b90600052602060002090601f0160209004810192826200013457600085556200017f565b82601f106200014f57805160ff19168380011785556200017f565b828001600101855582156200017f579182015b828111156200017f57825182559160200191906001019062000162565b506200018d92915062000191565b5090565b5b808211156200018d576000815560010162000192565b600181811c90821680620001bd57607f821691505b602082108103620001de57634e487b7160e01b600052602260045260246000fd5b50919050565b6117e080620001f46000396000f3fe608060405234801561001057600080fd5b50600436106101215760003560e01c80636352211e116100ad578063a22cb46511610071578063a22cb46514610279578063b88d4fde1461028c578063c87b56dd1461029f578063e985e9c5146102b2578063f2fde38b146102ee57600080fd5b80636352211e1461022457806370a0823114610237578063715018a6146102585780638da5cb5b1461026057806395d89b411461027157600080fd5b8063095ea7b3116100f4578063095ea7b3146101a357806323b872dd146101b657806337746cc5146101c957806342842e0e146101f1578063597704381461020457600080fd5b806301173a741461012657806301ffc9a71461013b57806306fdde0314610163578063081812fc14610178575b600080fd5b6101396101343660046112d6565b610301565b005b61014e610149366004611307565b610408565b60405190151581526020015b60405180910390f35b61016b61045a565b60405161015a919061137c565b61018b61018636600461138f565b6104ec565b6040516001600160a01b03909116815260200161015a565b6101396101b13660046113a8565b610513565b6101396101c43660046113d2565b610628565b6101dc6101d73660046113a8565b610659565b6040805192835260208301919091520161015a565b6101396101ff3660046113d2565b610695565b6102176102123660046112d6565b6106b0565b60405161015a919061140e565b61018b61023236600461138f565b610739565b61024a6102453660046112d6565b610799565b60405190815260200161015a565b61013961081f565b6006546001600160a01b031661018b565b61016b610833565b61013961028736600461145d565b610842565b61013961029a3660046114af565b610851565b61016b6102ad36600461138f565b610889565b61014e6102c036600461158b565b6001600160a01b03918216600090815260056020908152604080832093909416825291909152205460ff1690565b6101396102fc3660046112d6565b6108fd565b610309610976565b806001600160a01b03166103256006546001600160a01b031690565b6001600160a01b0316036103965760405162461bcd60e51b815260206004820152602d60248201527f526563697069656e742063616e6e6f7420626520746865206f776e6572206f6660448201526c081d1a194818dbdb9d1c9858dd609a1b60648201526084015b60405180910390fd5b6103a2816007546109d0565b6001600160a01b0381166000908152600860209081526040808320815180830190925260078054835242838501908152825460018181018555938752949095209251600290940290920192835592519183019190915554610402916115d4565b60075550565b60006001600160e01b031982166380ac58cd60e01b148061043957506001600160e01b03198216635b5e139f60e01b145b8061045457506301ffc9a760e01b6001600160e01b03198316145b92915050565b606060008054610469906115ec565b80601f0160208091040260200160405190810160405280929190818152602001828054610495906115ec565b80156104e25780601f106104b7576101008083540402835291602001916104e2565b820191906000526020600020905b8154815290600101906020018083116104c557829003601f168201915b5050505050905090565b60006104f7826109ea565b506000908152600460205260409020546001600160a01b031690565b600061051e82610739565b9050806001600160a01b0316836001600160a01b03160361058b5760405162461bcd60e51b815260206004820152602160248201527f4552433732313a20617070726f76616c20746f2063757272656e74206f776e656044820152603960f91b606482015260840161038d565b336001600160a01b03821614806105a757506105a781336102c0565b6106195760405162461bcd60e51b815260206004820152603d60248201527f4552433732313a20617070726f76652063616c6c6572206973206e6f7420746f60448201527f6b656e206f776e6572206f7220617070726f76656420666f7220616c6c000000606482015260840161038d565b6106238383610a49565b505050565b6106323382610ab7565b61064e5760405162461bcd60e51b815260040161038d90611626565b610623838383610b36565b6008602052816000526040600020818154811061067557600080fd5b600091825260209091206002909102018054600190910154909250905082565b61062383838360405180602001604052806000815250610851565b6001600160a01b0381166000908152600860209081526040808320805482518185028101850190935280835260609492939192909184015b8282101561072e578382906000526020600020906002020160405180604001604052908160008201548152602001600182015481525050815260200190600101906106e8565b505050509050919050565b6000818152600260205260408120546001600160a01b0316806104545760405162461bcd60e51b8152602060048201526018602482015277115490cdcc8c4e881a5b9d985b1a59081d1bdad95b88125160421b604482015260640161038d565b60006001600160a01b0382166108035760405162461bcd60e51b815260206004820152602960248201527f4552433732313a2061646472657373207a65726f206973206e6f7420612076616044820152683634b21037bbb732b960b91b606482015260840161038d565b506001600160a01b031660009081526003602052604090205490565b610827610976565b6108316000610ca7565b565b606060018054610469906115ec565b61084d338383610cf9565b5050565b61085b3383610ab7565b6108775760405162461bcd60e51b815260040161038d90611626565b61088384848484610dc7565b50505050565b6060610894826109ea565b60006108ab60408051602081019091526000815290565b905060008151116108cb57604051806020016040528060008152506108f6565b806108d584610dfa565b6040516020016108e6929190611673565b6040516020818303038152906040525b9392505050565b610905610976565b6001600160a01b03811661096a5760405162461bcd60e51b815260206004820152602660248201527f4f776e61626c653a206e6577206f776e657220697320746865207a65726f206160448201526564647265737360d01b606482015260840161038d565b61097381610ca7565b50565b6006546001600160a01b031633146108315760405162461bcd60e51b815260206004820181905260248201527f4f776e61626c653a2063616c6c6572206973206e6f7420746865206f776e6572604482015260640161038d565b61084d828260405180602001604052806000815250610e8d565b6000818152600260205260409020546001600160a01b03166109735760405162461bcd60e51b8152602060048201526018602482015277115490cdcc8c4e881a5b9d985b1a59081d1bdad95b88125160421b604482015260640161038d565b600081815260046020526040902080546001600160a01b0319166001600160a01b0384169081179091558190610a7e82610739565b6001600160a01b03167f8c5be1e5ebec7d5bd14f71427d1e84f3dd0314c0f7b2291e5b200ac8c7c3b92560405160405180910390a45050565b600080610ac383610739565b9050806001600160a01b0316846001600160a01b03161480610b0a57506001600160a01b0380821660009081526005602090815260408083209388168352929052205460ff165b80610b2e5750836001600160a01b0316610b23846104ec565b6001600160a01b0316145b949350505050565b826001600160a01b0316610b4982610739565b6001600160a01b031614610b6f5760405162461bcd60e51b815260040161038d906116a2565b6001600160a01b038216610bd15760405162461bcd60e51b8152602060048201526024808201527f4552433732313a207472616e7366657220746f20746865207a65726f206164646044820152637265737360e01b606482015260840161038d565b610bde8383836001610ec0565b826001600160a01b0316610bf182610739565b6001600160a01b031614610c175760405162461bcd60e51b815260040161038d906116a2565b600081815260046020908152604080832080546001600160a01b03199081169091556001600160a01b0387811680865260038552838620805460001901905590871680865283862080546001019055868652600290945282852080549092168417909155905184937fddf252ad1be2c89b69c2b068fc378daa952ba7f163c4a11628f55a4df523b3ef91a4505050565b600680546001600160a01b038381166001600160a01b0319831681179093556040519116919082907f8be0079c531659141344cd1fd0a4f28419497f9722a3daafe3b4186f6b6457e090600090a35050565b816001600160a01b0316836001600160a01b031603610d5a5760405162461bcd60e51b815260206004820152601960248201527f4552433732313a20617070726f766520746f2063616c6c657200000000000000604482015260640161038d565b6001600160a01b03838116600081815260056020908152604080832094871680845294825291829020805460ff191686151590811790915591519182527f17307eab39ab6107e8899845ad3d59bd9653f200f220920489ca2b5937696c31910160405180910390a3505050565b610dd2848484610b36565b610dde84848484610f48565b6108835760405162461bcd60e51b815260040161038d906116e7565b60606000610e0783611049565b600101905060008167ffffffffffffffff811115610e2757610e27611499565b6040519080825280601f01601f191660200182016040528015610e51576020820181803683370190505b5090508181016020015b600019016f181899199a1a9b1b9c1cb0b131b232b360811b600a86061a8153600a8504945084610e5b57509392505050565b610e978383611121565b610ea46000848484610f48565b6106235760405162461bcd60e51b815260040161038d906116e7565b6001811115610883576001600160a01b03841615610f06576001600160a01b03841660009081526003602052604081208054839290610f00908490611739565b90915550505b6001600160a01b03831615610883576001600160a01b03831660009081526003602052604081208054839290610f3d9084906115d4565b909155505050505050565b60006001600160a01b0384163b1561103e57604051630a85bd0160e11b81526001600160a01b0385169063150b7a0290610f8c903390899088908890600401611750565b6020604051808303816000875af1925050508015610fc7575060408051601f3d908101601f19168201909252610fc49181019061178d565b60015b611024573d808015610ff5576040519150601f19603f3d011682016040523d82523d6000602084013e610ffa565b606091505b50805160000361101c5760405162461bcd60e51b815260040161038d906116e7565b805181602001fd5b6001600160e01b031916630a85bd0160e11b149050610b2e565b506001949350505050565b60008072184f03e93ff9f4daa797ed6e38ed64bf6a1f0160401b83106110885772184f03e93ff9f4daa797ed6e38ed64bf6a1f0160401b830492506040015b6d04ee2d6d415b85acef810000000083106110b4576d04ee2d6d415b85acef8100000000830492506020015b662386f26fc1000083106110d257662386f26fc10000830492506010015b6305f5e10083106110ea576305f5e100830492506008015b61271083106110fe57612710830492506004015b60648310611110576064830492506002015b600a83106104545760010192915050565b6001600160a01b0382166111775760405162461bcd60e51b815260206004820181905260248201527f4552433732313a206d696e7420746f20746865207a65726f2061646472657373604482015260640161038d565b6000818152600260205260409020546001600160a01b0316156111dc5760405162461bcd60e51b815260206004820152601c60248201527f4552433732313a20746f6b656e20616c7265616479206d696e74656400000000604482015260640161038d565b6111ea600083836001610ec0565b6000818152600260205260409020546001600160a01b03161561124f5760405162461bcd60e51b815260206004820152601c60248201527f4552433732313a20746f6b656e20616c7265616479206d696e74656400000000604482015260640161038d565b6001600160a01b038216600081815260036020908152604080832080546001019055848352600290915280822080546001600160a01b0319168417905551839291907fddf252ad1be2c89b69c2b068fc378daa952ba7f163c4a11628f55a4df523b3ef908290a45050565b80356001600160a01b03811681146112d157600080fd5b919050565b6000602082840312156112e857600080fd5b6108f6826112ba565b6001600160e01b03198116811461097357600080fd5b60006020828403121561131957600080fd5b81356108f6816112f1565b60005b8381101561133f578181015183820152602001611327565b838111156108835750506000910152565b60008151808452611368816020860160208601611324565b601f01601f19169290920160200192915050565b6020815260006108f66020830184611350565b6000602082840312156113a157600080fd5b5035919050565b600080604083850312156113bb57600080fd5b6113c4836112ba565b946020939093013593505050565b6000806000606084860312156113e757600080fd5b6113f0846112ba565b92506113fe602085016112ba565b9150604084013590509250925092565b602080825282518282018190526000919060409081850190868401855b828110156114505781518051855286015186850152928401929085019060010161142b565b5091979650505050505050565b6000806040838503121561147057600080fd5b611479836112ba565b91506020830135801515811461148e57600080fd5b809150509250929050565b634e487b7160e01b600052604160045260246000fd5b600080600080608085870312156114c557600080fd5b6114ce856112ba565b93506114dc602086016112ba565b925060408501359150606085013567ffffffffffffffff8082111561150057600080fd5b818701915087601f83011261151457600080fd5b81358181111561152657611526611499565b604051601f8201601f19908116603f0116810190838211818310171561154e5761154e611499565b816040528281528a602084870101111561156757600080fd5b82602086016020830137600060208483010152809550505050505092959194509250565b6000806040838503121561159e57600080fd5b6115a7836112ba565b91506115b5602084016112ba565b90509250929050565b634e487b7160e01b600052601160045260246000fd5b600082198211156115e7576115e76115be565b500190565b600181811c9082168061160057607f821691505b60208210810361162057634e487b7160e01b600052602260045260246000fd5b50919050565b6020808252602d908201527f4552433732313a2063616c6c6572206973206e6f7420746f6b656e206f776e6560408201526c1c881bdc88185c1c1c9bdd9959609a1b606082015260800190565b60008351611685818460208801611324565b835190830190611699818360208801611324565b01949350505050565b60208082526025908201527f4552433732313a207472616e736665722066726f6d20696e636f72726563742060408201526437bbb732b960d91b606082015260800190565b60208082526032908201527f4552433732313a207472616e7366657220746f206e6f6e20455243373231526560408201527131b2b4bb32b91034b6b83632b6b2b73a32b960711b606082015260800190565b60008282101561174b5761174b6115be565b500390565b6001600160a01b038581168252841660208201526040810183905260806060820181905260009061178390830184611350565b9695505050505050565b60006020828403121561179f57600080fd5b81516108f6816112f156fea26469706673582212201210b1ad23beb372c0261fcab8dfbd37221e0b2f1fb85026fc4e825b2d05c82e64736f6c634300080d0033",
    "linkReferences": {}
  },
  "methodIdentifiers": {
    "approve(address,uint256)": "095ea7b3",
    "balanceOf(address)": "70a08231",
    "getApproved(uint256)": "081812fc",
    "getToken(address)": "59770438",
    "isApprovedForAll(address,address)": "e985e9c5",
    "mintToken(address)": "01173a74",
    "name()": "06fdde03",
    "owner()": "8da5cb5b",
    "ownerOf(uint256)": "6352211e",
    "ownershipRecord(address,uint256)": "37746cc5",
    "renounceOwnership()": "715018a6",
    "safeTransferFrom(address,address,uint256)": "42842e0e",
    "safeTransferFrom(address,address,uint256,bytes)": "b88d4fde",
    "setApprovalForAll(address,bool)": "a22cb465",
    "supportsInterface(bytes4)": "01ffc9a7",
    "symbol()": "95d89b41",
    "tokenURI(uint256)": "c87b56dd",
    "transferFrom(address,address,uint256)": "23b872dd",
    "transferOwnership(address)": "f2fde38b"
  },
  "id": 19
}