{
  "abi": [
    {
      "inputs": [],
      "stateMutability": "nonpayable",
      "type": "constructor"
    },
    {
      "anonymous": false,
      "inputs": [
        {
          "indexed": true,
          "internalType": "address",
          "name": "owner",
          "type": "address"
        },
        {
          "indexed": true,
          "internalType": "address",
          "name": "approved",
          "type": "address"
        },
        {
          "indexed": true,
          "internalType": "uint256",
          "name": "tokenId",
          "type": "uint256"
        }
      ],
      "name": "Approval",
      "type": "event"
    },
    {
      "anonymous": false,
      "inputs": [
        {
          "indexed": true,
          "internalType": "address",
          "name": "owner",
          "type": "address"
        },
        {
          "indexed": true,
          "internalType": "address",
          "name": "operator",
          "type": "address"
        },
        {
          "indexed": false,
          "internalType": "bool",
          "name": "approved",
          "type": "bool"
        }
      ],
      "name": "ApprovalForAll",
      "type": "event"
    },
    {
      "anonymous": false,
      "inputs": [
        {
          "indexed": true,
          "internalType": "address",
          "name": "previousOwner",
          "type": "address"
        },
        {
          "indexed": true,
          "internalType": "address",
          "name": "newOwner",
          "type": "address"
        }
      ],
      "name": "OwnershipTransferred",
      "type": "event"
    },
    {
      "anonymous": false,
      "inputs": [
        {
          "indexed": true,
          "internalType": "address",
          "name": "from",
          "type": "address"
        },
        {
          "indexed": true,
          "internalType": "address",
          "name": "to",
          "type": "address"
        },
        {
          "indexed": true,
          "internalType": "uint256",
          "name": "tokenId",
          "type": "uint256"
        }
      ],
      "name": "Transfer",
      "type": "event"
    },
    {
      "inputs": [
        {
          "internalType": "address",
          "name": "to",
          "type": "address"
        },
        {
          "internalType": "uint256",
          "name": "tokenId",
          "type": "uint256"
        }
      ],
      "name": "approve",
      "outputs": [],
      "stateMutability": "nonpayable",
      "type": "function"
    },
    {
      "inputs": [
        {
          "internalType": "address",
          "name": "owner",
          "type": "address"
        }
      ],
      "name": "balanceOf",
      "outputs": [
        {
          "internalType": "uint256",
          "name": "",
          "type": "uint256"
        }
      ],
      "stateMutability": "view",
      "type": "function"
    },
    {
      "inputs": [
        {
          "internalType": "uint256",
          "name": "tokenId",
          "type": "uint256"
        }
      ],
      "name": "getApproved",
      "outputs": [
        {
          "internalType": "address",
          "name": "",
          "type": "address"
        }
      ],
      "stateMutability": "view",
      "type": "function"
    },
    {
      "inputs": [
        {
          "internalType": "address",
          "name": "owner",
          "type": "address"
        },
        {
          "internalType": "address",
          "name": "operator",
          "type": "address"
        }
      ],
      "name": "isApprovedForAll",
      "outputs": [
        {
          "internalType": "bool",
          "name": "",
          "type": "bool"
        }
      ],
      "stateMutability": "view",
      "type": "function"
    },
    {
      "inputs": [],
      "name": "name",
      "outputs": [
        {
          "internalType": "string",
          "name": "",
          "type": "string"
        }
      ],
      "stateMutability": "view",
      "type": "function"
    },
    {
      "inputs": [],
      "name": "owner",
      "outputs": [
        {
          "internalType": "address",
          "name": "",
          "type": "address"
        }
      ],
      "stateMutability": "view",
      "type": "function"
    },
    {
      "inputs": [
        {
          "internalType": "uint256",
          "name": "tokenId",
          "type": "uint256"
        }
      ],
      "name": "ownerOf",
      "outputs": [
        {
          "internalType": "address",
          "name": "",
          "type": "address"
        }
      ],
      "stateMutability": "view",
      "type": "function"
    },
    {
      "inputs": [],
      "name": "renounceOwnership",
      "outputs": [],
      "stateMutability": "nonpayable",
      "type": "function"
    },
    {
      "inputs": [
        {
          "internalType": "address",
          "name": "to",
          "type": "address"
        },
        {
          "internalType": "string",
          "name": "uri",
          "type": "string"
        }
      ],
      "name": "safeMint",
      "outputs": [],
      "stateMutability": "nonpayable",
      "type": "function"
    },
    {
      "inputs": [
        {
          "internalType": "address",
          "name": "from",
          "type": "address"
        },
        {
          "internalType": "address",
          "name": "to",
          "type": "address"
        },
        {
          "internalType": "uint256",
          "name": "tokenId",
          "type": "uint256"
        }
      ],
      "name": "safeTransferFrom",
      "outputs": [],
      "stateMutability": "nonpayable",
      "type": "function"
    },
    {
      "inputs": [
        {
          "internalType": "address",
          "name": "from",
          "type": "address"
        },
        {
          "internalType": "address",
          "name": "to",
          "type": "address"
        },
        {
          "internalType": "uint256",
          "name": "tokenId",
          "type": "uint256"
        },
        {
          "internalType": "bytes",
          "name": "data",
          "type": "bytes"
        }
      ],
      "name": "safeTransferFrom",
      "outputs": [],
      "stateMutability": "nonpayable",
      "type": "function"
    },
    {
      "inputs": [
        {
          "internalType": "address",
          "name": "operator",
          "type": "address"
        },
        {
          "internalType": "bool",
          "name": "approved",
          "type": "bool"
        }
      ],
      "name": "setApprovalForAll",
      "outputs": [],
      "stateMutability": "nonpayable",
      "type": "function"
    },
    {
      "inputs": [
        {
          "internalType": "bytes4",
          "name": "interfaceId",
          "type": "bytes4"
        }
      ],
      "name": "supportsInterface",
      "outputs": [
        {
          "internalType": "bool",
          "name": "",
          "type": "bool"
        }
      ],
      "stateMutability": "view",
      "type": "function"
    },
    {
      "inputs": [],
      "name": "symbol",
      "outputs": [
        {
          "internalType": "string",
          "name": "",
          "type": "string"
        }
      ],
      "stateMutability": "view",
      "type": "function"
    },
    {
      "inputs": [
        {
          "internalType": "uint256",
          "name": "tokenId",
          "type": "uint256"
        }
      ],
      "name": "tokenURI",
      "outputs": [
        {
          "internalType": "string",
          "name": "",
          "type": "string"
        }
      ],
      "stateMutability": "view",
      "type": "function"
    },
    {
      "inputs": [
        {
          "internalType": "address",
          "name": "from",
          "type": "address"
        },
        {
          "internalType": "address",
          "name": "to",
          "type": "address"
        },
        {
          "internalType": "uint256",
          "name": "tokenId",
          "type": "uint256"
        }
      ],
      "name": "transferFrom",
      "outputs": [],
      "stateMutability": "nonpayable",
      "type": "function"
    },
    {
      "inputs": [
        {
          "internalType": "address",
          "name": "newOwner",
          "type": "address"
        }
      ],
      "name": "transferOwnership",
      "outputs": [],
      "stateMutability": "nonpayable",
      "type": "function"
    }
  ],
  "bytecode": {
    "object": "0x60806040523480156200001157600080fd5b506040518060400160405280600d81526020016c151a1c995954da59db58539195609a1b815250604051806040016040528060038152602001622a29a760e91b815250816000908162000065919062000192565b50600162000074828262000192565b505050620000916200008b6200009760201b60201c565b6200009b565b6200025e565b3390565b600680546001600160a01b038381166001600160a01b0319831681179093556040519116919082907f8be0079c531659141344cd1fd0a4f28419497f9722a3daafe3b4186f6b6457e090600090a35050565b634e487b7160e01b600052604160045260246000fd5b600181811c908216806200011857607f821691505b6020821081036200013957634e487b7160e01b600052602260045260246000fd5b50919050565b601f8211156200018d57600081815260208120601f850160051c81016020861015620001685750805b601f850160051c820191505b81811015620001895782815560010162000174565b5050505b505050565b81516001600160401b03811115620001ae57620001ae620000ed565b620001c681620001bf845462000103565b846200013f565b602080601f831160018114620001fe5760008415620001e55750858301515b600019600386901b1c1916600185901b17855562000189565b600085815260208120601f198616915b828110156200022f578886015182559484019460019091019084016200020e565b50858210156200024e5787850151600019600388901b60f8161c191681555b5050505050600190811b01905550565b6115e5806200026e6000396000f3fe608060405234801561001057600080fd5b506004361061010b5760003560e01c8063715018a6116100a2578063b88d4fde11610071578063b88d4fde1461021b578063c87b56dd1461022e578063d204c45e14610241578063e985e9c514610254578063f2fde38b1461026757600080fd5b8063715018a6146101e75780638da5cb5b146101ef57806395d89b4114610200578063a22cb4651461020857600080fd5b806323b872dd116100de57806323b872dd1461018d57806342842e0e146101a05780636352211e146101b357806370a08231146101c657600080fd5b806301ffc9a71461011057806306fdde0314610138578063081812fc1461014d578063095ea7b314610178575b600080fd5b61012361011e3660046110bd565b61027a565b60405190151581526020015b60405180910390f35b6101406102cc565b60405161012f919061112a565b61016061015b36600461113d565b61035e565b6040516001600160a01b03909116815260200161012f565b61018b610186366004611172565b610385565b005b61018b61019b36600461119c565b61049f565b61018b6101ae36600461119c565b6104d0565b6101606101c136600461113d565b6104eb565b6101d96101d43660046111d8565b61054b565b60405190815260200161012f565b61018b6105d1565b6006546001600160a01b0316610160565b6101406105e5565b61018b6102163660046111f3565b6105f4565b61018b6102293660046112bb565b610603565b61014061023c36600461113d565b61063b565b61018b61024f366004611337565b6106af565b610123610262366004611399565b6106dc565b61018b6102753660046111d8565b61070a565b60006001600160e01b031982166380ac58cd60e01b14806102ab57506001600160e01b03198216635b5e139f60e01b145b806102c657506301ffc9a760e01b6001600160e01b03198316145b92915050565b6060600080546102db906113cc565b80601f0160208091040260200160405190810160405280929190818152602001828054610307906113cc565b80156103545780601f1061032957610100808354040283529160200191610354565b820191906000526020600020905b81548152906001019060200180831161033757829003601f168201915b5050505050905090565b600061036982610783565b506000908152600460205260409020546001600160a01b031690565b6000610390826104eb565b9050806001600160a01b0316836001600160a01b0316036104025760405162461bcd60e51b815260206004820152602160248201527f4552433732313a20617070726f76616c20746f2063757272656e74206f776e656044820152603960f91b60648201526084015b60405180910390fd5b336001600160a01b038216148061041e575061041e81336106dc565b6104905760405162461bcd60e51b815260206004820152603d60248201527f4552433732313a20617070726f76652063616c6c6572206973206e6f7420746f60448201527f6b656e206f776e6572206f7220617070726f76656420666f7220616c6c00000060648201526084016103f9565b61049a83836107e2565b505050565b6104a93382610850565b6104c55760405162461bcd60e51b81526004016103f990611406565b61049a8383836108af565b61049a83838360405180602001604052806000815250610603565b6000818152600260205260408120546001600160a01b0316806102c65760405162461bcd60e51b8152602060048201526018602482015277115490cdcc8c4e881a5b9d985b1a59081d1bdad95b88125160421b60448201526064016103f9565b60006001600160a01b0382166105b55760405162461bcd60e51b815260206004820152602960248201527f4552433732313a2061646472657373207a65726f206973206e6f7420612076616044820152683634b21037bbb732b960b91b60648201526084016103f9565b506001600160a01b031660009081526003602052604090205490565b6105d9610a20565b6105e36000610a7a565b565b6060600180546102db906113cc565b6105ff338383610acc565b5050565b61060d3383610850565b6106295760405162461bcd60e51b81526004016103f990611406565b61063584848484610b9a565b50505050565b606061064682610783565b600061065d60408051602081019091526000815290565b9050600081511161067d57604051806020016040528060008152506106a8565b8061068784610bcd565b604051602001610698929190611453565b6040516020818303038152906040525b9392505050565b6106b7610a20565b60006106c260075490565b90506106d2600780546001019055565b61049a8382610c60565b6001600160a01b03918216600090815260056020908152604080832093909416825291909152205460ff1690565b610712610a20565b6001600160a01b0381166107775760405162461bcd60e51b815260206004820152602660248201527f4f776e61626c653a206e6577206f776e657220697320746865207a65726f206160448201526564647265737360d01b60648201526084016103f9565b61078081610a7a565b50565b6000818152600260205260409020546001600160a01b03166107805760405162461bcd60e51b8152602060048201526018602482015277115490cdcc8c4e881a5b9d985b1a59081d1bdad95b88125160421b60448201526064016103f9565b600081815260046020526040902080546001600160a01b0319166001600160a01b0384169081179091558190610817826104eb565b6001600160a01b03167f8c5be1e5ebec7d5bd14f71427d1e84f3dd0314c0f7b2291e5b200ac8c7c3b92560405160405180910390a45050565b60008061085c836104eb565b9050806001600160a01b0316846001600160a01b03161480610883575061088381856106dc565b806108a75750836001600160a01b031661089c8461035e565b6001600160a01b0316145b949350505050565b826001600160a01b03166108c2826104eb565b6001600160a01b0316146108e85760405162461bcd60e51b81526004016103f990611482565b6001600160a01b03821661094a5760405162461bcd60e51b8152602060048201526024808201527f4552433732313a207472616e7366657220746f20746865207a65726f206164646044820152637265737360e01b60648201526084016103f9565b6109578383836001610c7a565b826001600160a01b031661096a826104eb565b6001600160a01b0316146109905760405162461bcd60e51b81526004016103f990611482565b600081815260046020908152604080832080546001600160a01b03199081169091556001600160a01b0387811680865260038552838620805460001901905590871680865283862080546001019055868652600290945282852080549092168417909155905184937fddf252ad1be2c89b69c2b068fc378daa952ba7f163c4a11628f55a4df523b3ef91a4505050565b6006546001600160a01b031633146105e35760405162461bcd60e51b815260206004820181905260248201527f4f776e61626c653a2063616c6c6572206973206e6f7420746865206f776e657260448201526064016103f9565b600680546001600160a01b038381166001600160a01b0319831681179093556040519116919082907f8be0079c531659141344cd1fd0a4f28419497f9722a3daafe3b4186f6b6457e090600090a35050565b816001600160a01b0316836001600160a01b031603610b2d5760405162461bcd60e51b815260206004820152601960248201527f4552433732313a20617070726f766520746f2063616c6c65720000000000000060448201526064016103f9565b6001600160a01b03838116600081815260056020908152604080832094871680845294825291829020805460ff191686151590811790915591519182527f17307eab39ab6107e8899845ad3d59bd9653f200f220920489ca2b5937696c31910160405180910390a3505050565b610ba58484846108af565b610bb184848484610d02565b6106355760405162461bcd60e51b81526004016103f9906114c7565b60606000610bda83610e03565b600101905060008167ffffffffffffffff811115610bfa57610bfa61122f565b6040519080825280601f01601f191660200182016040528015610c24576020820181803683370190505b5090508181016020015b600019016f181899199a1a9b1b9c1cb0b131b232b360811b600a86061a8153600a8504945084610c2e57509392505050565b6105ff828260405180602001604052806000815250610edb565b6001811115610635576001600160a01b03841615610cc0576001600160a01b03841660009081526003602052604081208054839290610cba90849061152f565b90915550505b6001600160a01b03831615610635576001600160a01b03831660009081526003602052604081208054839290610cf7908490611542565b909155505050505050565b60006001600160a01b0384163b15610df857604051630a85bd0160e11b81526001600160a01b0385169063150b7a0290610d46903390899088908890600401611555565b6020604051808303816000875af1925050508015610d81575060408051601f3d908101601f19168201909252610d7e91810190611592565b60015b610dde573d808015610daf576040519150601f19603f3d011682016040523d82523d6000602084013e610db4565b606091505b508051600003610dd65760405162461bcd60e51b81526004016103f9906114c7565b805181602001fd5b6001600160e01b031916630a85bd0160e11b1490506108a7565b506001949350505050565b60008072184f03e93ff9f4daa797ed6e38ed64bf6a1f0160401b8310610e425772184f03e93ff9f4daa797ed6e38ed64bf6a1f0160401b830492506040015b6d04ee2d6d415b85acef81000000008310610e6e576d04ee2d6d415b85acef8100000000830492506020015b662386f26fc100008310610e8c57662386f26fc10000830492506010015b6305f5e1008310610ea4576305f5e100830492506008015b6127108310610eb857612710830492506004015b60648310610eca576064830492506002015b600a83106102c65760010192915050565b610ee58383610f0e565b610ef26000848484610d02565b61049a5760405162461bcd60e51b81526004016103f9906114c7565b6001600160a01b038216610f645760405162461bcd60e51b815260206004820181905260248201527f4552433732313a206d696e7420746f20746865207a65726f206164647265737360448201526064016103f9565b6000818152600260205260409020546001600160a01b031615610fc95760405162461bcd60e51b815260206004820152601c60248201527f4552433732313a20746f6b656e20616c7265616479206d696e7465640000000060448201526064016103f9565b610fd7600083836001610c7a565b6000818152600260205260409020546001600160a01b03161561103c5760405162461bcd60e51b815260206004820152601c60248201527f4552433732313a20746f6b656e20616c7265616479206d696e7465640000000060448201526064016103f9565b6001600160a01b038216600081815260036020908152604080832080546001019055848352600290915280822080546001600160a01b0319168417905551839291907fddf252ad1be2c89b69c2b068fc378daa952ba7f163c4a11628f55a4df523b3ef908290a45050565b6001600160e01b03198116811461078057600080fd5b6000602082840312156110cf57600080fd5b81356106a8816110a7565b60005b838110156110f55781810151838201526020016110dd565b50506000910152565b600081518084526111168160208601602086016110da565b601f01601f19169290920160200192915050565b6020815260006106a860208301846110fe565b60006020828403121561114f57600080fd5b5035919050565b80356001600160a01b038116811461116d57600080fd5b919050565b6000806040838503121561118557600080fd5b61118e83611156565b946020939093013593505050565b6000806000606084860312156111b157600080fd5b6111ba84611156565b92506111c860208501611156565b9150604084013590509250925092565b6000602082840312156111ea57600080fd5b6106a882611156565b6000806040838503121561120657600080fd5b61120f83611156565b91506020830135801515811461122457600080fd5b809150509250929050565b634e487b7160e01b600052604160045260246000fd5b600067ffffffffffffffff808411156112605761126061122f565b604051601f8501601f19908116603f011681019082821181831017156112885761128861122f565b816040528093508581528686860111156112a157600080fd5b858560208301376000602087830101525050509392505050565b600080600080608085870312156112d157600080fd5b6112da85611156565b93506112e860208601611156565b925060408501359150606085013567ffffffffffffffff81111561130b57600080fd5b8501601f8101871361131c57600080fd5b61132b87823560208401611245565b91505092959194509250565b6000806040838503121561134a57600080fd5b61135383611156565b9150602083013567ffffffffffffffff81111561136f57600080fd5b8301601f8101851361138057600080fd5b61138f85823560208401611245565b9150509250929050565b600080604083850312156113ac57600080fd5b6113b583611156565b91506113c360208401611156565b90509250929050565b600181811c908216806113e057607f821691505b60208210810361140057634e487b7160e01b600052602260045260246000fd5b50919050565b6020808252602d908201527f4552433732313a2063616c6c6572206973206e6f7420746f6b656e206f776e6560408201526c1c881bdc88185c1c1c9bdd9959609a1b606082015260800190565b600083516114658184602088016110da565b8351908301906114798183602088016110da565b01949350505050565b60208082526025908201527f4552433732313a207472616e736665722066726f6d20696e636f72726563742060408201526437bbb732b960d91b606082015260800190565b60208082526032908201527f4552433732313a207472616e7366657220746f206e6f6e20455243373231526560408201527131b2b4bb32b91034b6b83632b6b2b73a32b960711b606082015260800190565b634e487b7160e01b600052601160045260246000fd5b818103818111156102c6576102c6611519565b808201808211156102c6576102c6611519565b6001600160a01b0385811682528416602082015260408101839052608060608201819052600090611588908301846110fe565b9695505050505050565b6000602082840312156115a457600080fd5b81516106a8816110a756fea2646970667358221220299b3afe5a5ab6bab99935e469b15f68fd454d0cd337e7fdb645cb5c6cd4fe3864736f6c63430008110033",
    "linkReferences": {}
  },
  "methodIdentifiers": {
    "approve(address,uint256)": "095ea7b3",
    "balanceOf(address)": "70a08231",
    "getApproved(uint256)": "081812fc",
    "isApprovedForAll(address,address)": "e985e9c5",
    "name()": "06fdde03",
    "owner()": "8da5cb5b",
    "ownerOf(uint256)": "6352211e",
    "renounceOwnership()": "715018a6",
    "safeMint(address,string)": "d204c45e",
    "safeTransferFrom(address,address,uint256)": "42842e0e",
    "safeTransferFrom(address,address,uint256,bytes)": "b88d4fde",
    "setApprovalForAll(address,bool)": "a22cb465",
    "supportsInterface(bytes4)": "01ffc9a7",
    "symbol()": "95d89b41",
    "tokenURI(uint256)": "c87b56dd",
    "transferFrom(address,address,uint256)": "23b872dd",
    "transferOwnership(address)": "f2fde38b"
  },
  "id": 27
}